:100000000C9464000C948C000C948C000C948C0068
:100010000C948C000C948C000C948C000C94F108C3
:100020000C948C000C948C000C948C000C948C0020
:100030000C948C000C948C000C948C000C948C0010
:100040000C944D090C948C000C94A3040C94D504CE
:100050000C948C000C948C000C948C000C948C00F0
:100060000C948C000C948C0002000000080002012B
:10007000000003040700000000000000000102046B
:10008000081020408001020408102001020408101A
:100090002004040404040404040202020202020311
:1000A00003030303030000000023002600290000CF
:1000B000000000250028002B00000000002400277D
:1000C000002A00000A02050511241FBECFEFD8E068
:1000D000DEBFCDBF11E0A0E0B1E0E2E1F9E102C096
:1000E00005900D92A235B107D9F722E0A2E5B1E063
:1000F00001C01D92A531B207E1F710E0C4E6D0E0DF
:1001000004C02197FE010E94510BC236D107C9F7E6
:100110000E9433050C94870C0C940000CF92DF9260
:10012000EF92FF920F931F93E82FF92F05C0015014
:1001300011092109310961F1908196239417B9F3CE
:1001400005C0015011092109310911F1908196234F
:100150009413F7CFC12CD12CE12CF12C0AC08FEFD6
:10016000C81AD80AE80AF80A0C151D052E053F051D
:1001700079F080818623841791F36C2D7D2D8E2D4F
:100180009F2D1F910F91FF90EF90DF90CF900895DA
:1001900060E070E080E090E01F910F91FF90EF90A1
:1001A000DF90CF900895FC01808191810895FC013A
:1001B000718360830895CF93DF93EB0124EF31E0E7
:1001C00040E050E068EE73E0FC0180810E943A0656
:1001D000BE0180E090E0DF91CF910C94BC09FC015E
:1001E0007383628355834483B901808191810C9428
:1001F000D700CF93DF93EC0160E08A810E94A30ACD
:1002000082E090E00E94F80961E08A810E94A30ADE
:100210008AE090E00E94F80960E08A810E94A30AC7
:1002200020E432E44FE050E061E08C81DF91CF9137
:100230000C94D20A0E94F9000E94690226E933E474
:100240004BE05DE30E94CD0220E030E040E05FE360
:100250000E94CD020E943102CB010895CF93DF931B
:10026000EC0167E071E086E591E00E948305CE0134
:100270000E941A014AE050E0BC0186E591E00E942C
:10028000330662E171E086E591E0DF91CF910C9455
:100290009005CF93DF93EC010E941A0140972CF454
:1002A000CE010E941A010B9784F4CE010E941A011C
:1002B0000B978CF4CE010E941A01069764F0CE01D0
:1002C0000E942E0160E273E036C0CE010E942E0132
:1002D00068EE73E030C0CE010E941A0106975CF40C
:1002E000CE010E941A01039734F0CE010E942E0124
:1002F00068E572E020C0CE010E941A0103975CF409
:10030000CE010E941A01029734F0CE010E942E0104
:1003100060E971E010C0CE010E941A0102978CF4CE
:10032000CE010E941A01181619065CF4CE010E9433
:100330002E0168EC70E088819981DF91CF910C9457
:10034000DB00CE010E941A011816190634F0CE0106
:100350000E942E0164E670E0EECFDF91CF91089508
:10036000FC01828193810895FC0184819581089527
:10037000CF93DF93EC010E94B00161E00E94670A15
:10038000CE010E94B40160E00E94670A88819981D1
:100390000E94D30061E0DF91CF910C94670A26E0C0
:1003A00040E855E260E070E086E591E00E943E049E
:1003B00066E171E086E591E00E9483058091540139
:1003C000909155010E94B801809152019091530182
:1003D0000E94B801E0915401F091550168EE73E07C
:1003E000808191810E94DB00E0915201F0915301E4
:1003F00068EE73E0808191810C94DB008091540160
:10040000909155010E9449018091520190915301B0
:100410000C944901CF93DF9386E090E00E9442055F
:10042000EC0128E030E042E050E063E070E00E9440
:10043000EF00D0935501C093540186E090E00E94F4
:100440004205EC0129E030E044E050E063E070E078
:100450000E94EF00D0935301C0935201DF91CF91DE
:1004600008950E9438026894B1110C94C70208954F
:100470000E94AC0288F09F5798F0B92F9927B75186
:10048000B0F0E1F0660F771F881F991F1AF0BA9538
:10049000C9F714C0B13091F00E94C602B1E00895CE
:1004A0000C94C602672F782F8827B85F39F0B93FC0
:1004B000CCF3869577956795B395D9F73EF49095EB
:1004C0008095709561957F4F8F4F9F4F0895E89469
:1004D00009C097FB3EF490958095709561957F4F8C
:1004E0008F4F9F4F9923A9F0F92F96E9BB2793953A
:1004F000F695879577956795B795F111F8CFFAF44A
:10050000BB0F11F460FF1BC06F5F7F4F8F4F9F4F7A
:1005100016C0882311F096E911C0772321F09EE8D8
:10052000872F762F05C0662371F096E8862F70E03E
:1005300060E02AF09A95660F771F881FDAF7880F18
:100540009695879597F9089557FD9058440F551F34
:1005500059F05F3F71F04795880F97FB991F61F045
:100560009F3F79F087950895121613061406551FBC
:10057000F2CF4695F1DF08C0161617061806991F28
:10058000F1CF86957105610508940895E894BB271D
:1005900066277727CB0197F908950E94E0020C9413
:1005A00051030E94430338F00E944A0320F0952330
:1005B00011F00C943A030C94400311240C94C702DC
:1005C0000E94A40270F3959FC1F3950F50E0551F50
:1005D000629FF001729FBB27F00DB11D639FAA2798
:1005E000F00DB11DAA1F649F6627B00DA11D661FE7
:1005F000829F2227B00DA11D621F739FB00DA11D08
:10060000621F839FA00D611D221F749F3327A00DC1
:10061000611D231F849F600D211D822F762F6A2F5D
:1006200011249F5750409AF0F1F088234AF0EE0FC2
:10063000FF1FBB1F661F771F881F91505040A9F7EF
:100640009E3F510580F00C943A030C94C7025F3F23
:10065000E4F3983ED4F3869577956795B795F7952B
:10066000E7959F5FC1F7FE2B880F911D96958795A3
:1006700097F9089597F99F6780E870E060E0089522
:100680009FEF80EC089500240A94161617061806AA
:100690000906089500240A94121613061406050686
:1006A0000895092E0394000C11F4882352F0BB0F17
:1006B00040F4BF2B11F460FF04C06F5F7F4F8F4F7A
:1006C0009F4F0895FC01918D228D892F90E0805CD1
:1006D0009F4F821B91098F7399270895FC01918D7B
:1006E000828D981731F0828DE80FF11D858D90E095
:1006F00008958FEF9FEF0895FC01918D828D9817DB
:1007000061F0828DDF01A80FB11D5D968C91928DF5
:100710009F5F9F73928F90E008958FEF9FEF0895F2
:10072000FC01538D448D252F30E0842F90E0821BF7
:10073000930B541710F0CF960895019708958BEFFF
:1007400094E0892B49F080E090E0892B29F00E9409
:10075000FB0481110C9400000895FC01848DDF01DD
:10076000A80FB11DA35ABF4F2C91848D90E0019624
:100770008F739927848FA689B7892C93A089B18913
:100780008C91837080648C93938D848D981306C0B4
:100790000288F389E02D80818F7D80830895EF9218
:1007A000FF920F931F93CF93DF93EC0181E0888F2B
:1007B0009B8D8C8D981305C0E889F989808185FD12
:1007C00026C0F62E0B8D10E00F5F1F4F0F73112701
:1007D000E02E8C8DE8120CC00FB607FCFACFE8892A
:1007E000F989808185FFF5CFCE010E94AD03F1CF5D
:1007F0008B8DFE01E80FF11DE35AFF4FF0829FB78A
:10080000F8940B8FEA89FB89808180620AC09FB7C8
:10081000F894EE89FF896083E889F9898081837083
:10082000806480839FBF81E090E0DF91CF911F9132
:100830000F91FF90EF900895CF93DF93EC01888D97
:100840008823C9F0EA89FB89808185FD05C0A889D4
:10085000B9898C9186FD0FC00FB607FCF5CF80815A
:1008600085FFF2CFA889B9898C9185FFEDCFCE01A4
:100870000E94AD03E7CFDF91CF910895CF92DF9231
:10088000EF92FF921F93CF93DF93EC016A017B01FC
:10089000122FE889F98982E080834115514E610564
:1008A0007105B1F060E079E08DE390E0A701960179
:1008B0000E94050BDA01C9010197A109B109B6959A
:1008C000A795979587959C01211580E13807A8F099
:1008D000E889F989108260E874E88EE190E0A70168
:1008E00096010E94050BDA01C9010197A109B1091E
:1008F000B695A795979587959C01EC85FD853083E6
:10090000EE85FF852083188EEC89FD891083EA89A6
:10091000FB89808180618083EA89FB89808188608E
:100920008083EA89FB89808180688083EA89FB89EA
:1009300080818F7D8083DF91CF911F91FF90EF9019
:10094000DF90CF9008951F920F920FB60F9211244F
:100950002F938F939F93EF93FF93E0916601F09114
:1009600067018081E0916C01F0916D0182FD12C000
:10097000908180916F018F5F8F732091700182173A
:1009800051F0E0916F01F0E0EA5AFE4F958F8093AD
:100990006F0101C08081FF91EF919F918F912F9105
:1009A0000F900FBE0F901F9018951F920F920FB6C9
:1009B0000F9211242F933F934F935F936F937F93E5
:1009C0008F939F93AF93BF93EF93FF9386E591E04F
:1009D0000E94AD03FF91EF91BF91AF919F918F91D5
:1009E0007F916F915F914F913F912F910F900FBE2B
:1009F0000F901F90189586E591E00E94620321E018
:100A0000892B09F420E0822F0895E6E5F1E01382B6
:100A1000128288EE93E0A0E0B0E084839583A68301
:100A2000B78385E391E09183808385EC90E095879F
:100A3000848784EC90E09787868780EC90E0918BA8
:100A4000808B81EC90E0938B828B82EC90E0958B95
:100A5000848B86EC90E0978B868B118E128E138E92
:100A6000148E089508950E94030A0E9432050E9480
:100A7000CF01CFE9D3E00E94FE012097E1F30E946D
:100A80009F03F9CF0C94660BCF92DF92EF92FF9207
:100A90000F931F93CF93DF936C017A018B01C0E01A
:100AA000D0E0CE15DF0581F0D8016D918D01D60122
:100AB000ED91FC910190F081E02DC6010995892B03
:100AC00011F02196EECF7E01C701DF91CF911F91EA
:100AD0000F91FF90EF90DF90CF9008956115710511
:100AE00079F0FB0101900020E9F73197AF01461B37
:100AF000570BDC01ED91FC910280F381E02D09940C
:100B000080E090E008950C946E05DC01ED91FC917D
:100B10000190F081E02D099463E471E00C946E057E
:100B20000F931F93CF93DF93EC010E946E058C010E
:100B3000CE010E948C05800F911FDF91CF911F91F4
:100B40000F9108958F929F92AF92BF92EF92FF9272
:100B50000F931F93CF93DF93CDB7DEB7A1970FB657
:100B6000F894DEBF0FBECDBF7C01FA01CB0119A204
:100B7000223008F42AE08E010F5D1F4F822E912C47
:100B8000A12CB12CBF01A50194010E94050BF90114
:100B9000CA01015011096A3010F4605D01C0695C3E
:100BA000D8016C93232B242B252B61F7B801C701A7
:100BB0000E946E05A1960FB6F894DEBF0FBECDBFA2
:100BC000DF91CF911F910F91FF90EF90BF90AF9069
:100BD0009F908F900895CF92DF92EF92FF920F93A4
:100BE0001F93CF93DF932115310581F4DC01ED9143
:100BF000FC910190F081E02D642FDF91CF911F9146
:100C00000F91FF90EF90DF90CF9009942A3031053B
:100C100001F577FF1DC06A017B01EC016DE20E94C6
:100C200085058C0144275527BA014C195D096E09C9
:100C30007F092AE0CE010E94A205800F911FDF915B
:100C4000CF911F910F91FF90EF90DF90CF9008957B
:100C50002AE0DF91CF911F910F91FF90EF90DF90ED
:100C6000CF900C94A2059A01AB01770F660B770B1E
:100C70000C94EB054F925F926F927F928F929F92AE
:100C8000AF92BF92CF92DF92EF92FF920F931F939A
:100C9000CF93DF9300D000D01F92CDB7DEB78B018A
:100CA00029013A0190910601891721F09F3F09F02F
:100CB0004DC205C0E8E6F0E024912D8384C0809306
:100CC0000601E8E6F0E094919D839F3F09F43EC25F
:100CD000913009F44DC058F1923009F074C010926F
:100CE000B0001092B1009091B00092609093B0006B
:100CF0009091B10091609093B100282F30E0F901FC
:100D0000EF56FF4FE491F0E0EE0FFF1FE155FF4F6C
:100D1000459154915093F5014093F401F901E35842
:100D2000FF4FE491E093F30192E09D830BC214BC6A
:100D300015BC94B5926094BD95B5916095BD282F72
:100D400030E0F901EF56FF4FE491F0E0EE0FFF1FA6
:100D5000E155FF4F45915491509303024093020295
:100D6000F901E358FF4FE491E09301021D82EAC1CB
:100D70001092800010928100909181009860909371
:100D8000810090918100916090938100282F30E044
:100D9000F901EF56FF4FE491F0E0EE0FFF1FE15530
:100DA000FF4F459154915093FC014093FB01F90191
:100DB000E358FF4FE491E093FA0161E00E94670A73
:100DC00021E02D8389C02D8127FDC0C161E00E94F3
:100DD000670A8D818D7F09F07FC04801A12CB12C5D
:100DE00060E072E18AE790E0A50194010E94270B80
:100DF00029833A834B835C8369017A0181E0C81AB5
:100E0000D108E108F1089FEFC916D104E104F1040B
:100E100009F008F44EC060E472E48FE090E0A501B0
:100E200094010E94270B69017A0181E0C81AD10858
:100E3000E108F1089D81923009F52FEFC216D10427
:100E4000E104F10409F008F444C160E970ED83E0C5
:100E500090E0A50194010E94270B69017A0181E0CD
:100E6000C81AD108E108F1089FEFC916D104E104BE
:100E7000F10411F008F0BAC083E027C02FEFC216CA
:100E8000D104E104F104B9F0B0F068E478EE81E057
:100E900090E0A50194010E94270B69017A0181E08D
:100EA000C81AD108E108F1089D81992309F413C1FA
:100EB000DCC081E001C082E09D81911106C095B542
:100EC000987F892B85BD44C085E09091B100987FC3
:100ED000892B8093B1003CC04801A12CB12C60E06B
:100EE00072E18AE790E0A50194010E94270B690155
:100EF0007A0181E0C81AD108E108F108C114D104CF
:100F000091E0E906F10488F068E478EE81E090E091
:100F1000A50194010E94270B69017A0181E0C81A9A
:100F2000D108E108F10883E001C081E09D819130A2
:100F300079F490918100987F892B809381004114EE
:100F400051046104710449F42FEF3FEFA9012CC053
:100F5000411451046104710471F0D801AA0FBB1F40
:100F6000A30192010E94460B28EE33E040E050E0DE
:100F70000E94050B03C02FEF3FEFA9018D81813047
:100F800099F0823019F18111E1C0C7BC20930402AD
:100F900030930502409306025093070280916E0041
:100FA000826080936E00D2C0D0928900C092880087
:100FB0002093FD013093FE014093FF015093000206
:100FC00080916F00826080936F00C0C0C092B300B8
:100FD0002093F6013093F7014093F8015093F90103
:100FE00080917000826080937000B0C068E478EEF9
:100FF00081E090E0A50194010E94270B69017A012C
:1010000091E0C91AD108E108F1082FEFC216D10406
:10101000E104F10441F138F164E274EF80E090E022
:10102000A50194010E94270B69017A0181E0C81A89
:10103000D108E108F1089FEFC916D104E104F104D9
:1010400009F008F441CF62E17AE780E090E0A50181
:1010500094010E94270B69017A0181E0C81AD10826
:10106000E108F10819C084E030CF2FEFC216D10497
:10107000E104F10409F008F463C062E17AE780E07A
:1010800090E0A50194010E94270B69017A0191E08B
:10109000C91AD108E108F1088FEFC816D104E1049C
:1010A000F104A9F0A0F089819A81AB81BC812AE08A
:1010B000B595A795979587952A95D1F76C017D01F0
:1010C00021E0C21AD108E108F10887E0FECE86E0EF
:1010D000FCCE82E0FACE8FEFC816D104E104F10411
:1010E00069F160F162E17AE780E090E0A5019401A6
:1010F0000E94270B69017A0191E0C91AD108E10821
:10110000F1082FEFC216D104E104F104A9F0A0F018
:1011100089819A81AB81BC813AE0B595A795979575
:1011200087953A95D1F76C017D0121E0C21AD1086B
:10113000E108F10885E0C3CE84E0C1CE83E0BFCEF4
:1011400084E0BACE61E00E94670A47CE0F900F900C
:101150000F900F900F90DF91CF911F910F91FF9003
:10116000EF90DF90CF90BF90AF909F908F907F9047
:101170006F905F904F900895813039F018F0823071
:1011800051F0089510926E00089580916F008D7F48
:1011900080936F000895809170008D7F8093700020
:1011A00081E08093B0008091B100887F846080935B
:1011B000B1001092B3000895CF93C82F809106011B
:1011C000C81307C0E8E6F0E084919FEF9093060112
:1011D00001C08FEF0E94BC0860E08C2FCF910C946F
:1011E000A30A1F920F920FB60F9211242F933F93D1
:1011F0004F935F936F937F938F939F93AF93BF931F
:10120000EF93FF938091F6019091F701A091F8017F
:10121000B091F901892B8A2B8B2B51F19091F3011D
:10122000E091F401F091F50180818927808380911C
:10123000F6019091F701A091F801B091F90118160B
:1012400019061A061B06C4F48091F6019091F70165
:10125000A091F801B091F9010197A109B10980931A
:10126000F6019093F701A093F801B093F90104C03F
:10127000809106010E94DC08FF91EF91BF91AF9130
:101280009F918F917F916F915F914F913F912F919E
:101290000F900FBE0F901F9018951F920F920FB6D0
:1012A0000F9211242F933F938F939F93AF93BF93EC
:1012B0008091090290910A02A0910B02B0910C0258
:1012C0003091080223E0230F2D3720F40196A11D51
:1012D000B11D05C026E8230F0296A11DB11D209364
:1012E00008028093090290930A02A0930B02B09324
:1012F0000C0280910D0290910E02A0910F02B0910C
:1013000010020196A11DB11D80930D0290930E0253
:10131000A0930F02B0931002BF91AF919F918F9154
:101320003F912F910F900FBE0F901F9018953FB7D0
:10133000F89480910D0290910E02A0910F02B0914D
:10134000100226B5A89B05C02F3F19F00196A11DDC
:10135000B11D3FBFBA2FA92F982F8827820F911D4B
:10136000A11DB11DBC01CD0142E0660F771F881F92
:10137000991F4A95D1F708958F929F92AF92BF928D
:10138000CF92DF92EF92FF926B017C010E9497094E
:101390004B015C01C114D104E104F10401F10E948C
:1013A000040B0E949709DC01CB0188199909AA094D
:1013B000BB09883E9340A105B10560F321E0C21A44
:1013C000D108E108F10888EE880E83E0981EA11C80
:1013D000B11CC114D104E104F10419F7DBCFFF9073
:1013E000EF90DF90CF90BF90AF909F908F90089537
:1013F0008230910538F0880F991F880F991F059743
:101400000197F1F70895789484B5826084BD84B51E
:10141000816084BD85B5826085BD85B5816085BDEF
:10142000EEE6F0E0808181608083E1E8F0E0108208
:10143000808182608083808181608083E0E8F0E049
:10144000808181608083E1EBF0E080818460808333
:10145000E0EBF0E0808181608083EAE7F0E080816A
:1014600084608083808182608083808181608083CA
:101470008081806880831092C1000895833081F05C
:1014800028F4813099F08230A1F008958730A9F0D6
:101490008830B9F08430D1F4809180008F7D03C012
:1014A000809180008F7780938000089584B58F7736
:1014B00002C084B58F7D84BD08958091B0008F7780
:1014C00003C08091B0008F7D8093B0000895CF93CA
:1014D000DF9390E0FC01E358FF4F2491FC01EF56AD
:1014E000FF4F8491882361F190E0880F991FFC01E0
:1014F000E754FF4FC591D491FC01E155FF4FA591F1
:10150000B491611109C09FB7F89488812095822316
:101510008883EC912E230BC0623061F49FB7F8945E
:101520008881322F309583238883EC912E2B2C9346
:101530009FBF06C08FB7F894E8812E2B28838FBFFA
:10154000DF91CF9108951F93CF93DF93282F30E041
:10155000F901E759FF4F8491F901E358FF4FD49106
:10156000F901EF56FF4FC491CC23C1F0162F811122
:101570000E943E0AEC2FF0E0EE0FFF1FE155FF4FF7
:10158000A591B4919FB7F894111104C08C91D09596
:10159000D82302C0EC91DE2BDC939FBFDF91CF916B
:1015A0001F9108950F931F9390E0FC01E358FF4FA4
:1015B0007491FC01EF56FF4FE491662311F0672F01
:1015C00001C060E0F0E0EE0FFF1FEB55FF4F85918B
:1015D000949189019A013F70462F672F0E948E00D7
:1015E000611571058105910549F0DC01CB0101967A
:1015F000A11DB11DBC01CD019F7003C060E070E072
:10160000CB011F910F9108950895A1E21A2EAA1BF4
:10161000BB1BFD010DC0AA1FBB1FEE1FFF1FA217A2
:10162000B307E407F50720F0A21BB30BE40BF50B9F
:10163000661F771F881F991F1A9469F76095709528
:10164000809590959B01AC01BD01CF010895052EB9
:1016500097FB1EF400940E943E0B57FD07D00E949A
:10166000050B07FC03D04EF40C943E0B50954095AF
:10167000309521953F4F4F4F5F4F0895909580953E
:10168000709561957F4F8F4F9F4F08950E94570B24
:10169000A59F900DB49F900DA49F800D911D1124C6
:1016A0000895EE0FFF1F0590F491E02D0994A29F7D
:1016B000B001B39FC001A39F700D811D1124911D26
:1016C000B29F700D811D1124911D08950F931F93DA
:1016D000CF93DF938230910510F482E090E0E091A7
:1016E0001302F091140220E030E0A0E0B0E0309767
:1016F00019F1408151810281138148175907C8F0BF
:101700008417950769F4109731F012960C9312978D
:1017100013961C9327C0009313021093140222C047
:101720002115310519F04217530718F49A01BD012C
:10173000EF01DF01F801DBCF21153105F9F0281B9E
:10174000390B2430310580F48A819B816115710544
:1017500021F0FB019383828304C090931402809351
:101760001302FE01329644C0FE01E20FF31F819383
:10177000919322503109398328833AC02091110274
:1017800030911202232B41F4209102013091030188
:101790003093120220931102209100013091010137
:1017A0002115310541F42DB73EB740910401509108
:1017B0000501241B350BE0911102F0911202E21792
:1017C000F307A0F42E1B3F0B2817390778F0AC0164
:1017D0004E5F5F4F2417350748F04E0F5F1F509341
:1017E0001202409311028193919302C0E0E0F0E075
:1017F000CF01DF91CF911F910F910895CF93DF9388
:10180000009709F481C0FC01329713821282A091E3
:101810001302B0911402109781F420813181820F5C
:10182000931F20911102309112022817390751F5A8
:10183000F0931202E093110267C0ED0120E030E066
:10184000CE17DF0740F44A815B819E0141155105A7
:10185000F1F0EA01F5CFD383C28340815181840F37
:10186000951FC817D90759F488819981840F951F4E
:101870000296918380838A819B8193838283211541
:10188000310529F4F0931402E09313023DC0E901FD
:10189000FB83EA8349915991C40FD51FEC17FD07CB
:1018A00061F480819181840F951F0296E9019983EB
:1018B0008883828193819B838A83E0E0F0E01296A3
:1018C0008D919C911397009719F0FD01DC01F7CFE2
:1018D0008D919C9111979D012E5F3F4F820F931F19
:1018E00020911102309112022817390769F43097BC
:1018F00029F4109214021092130202C01382128271
:10190000B0931202A0931102DF91CF910895F89441
:02191000FFCF07
:10191200000015022000FF44697374616E63653A2A
:10192200200020636D00534D4152545F43415220C9
:101932005350532054455354205354415254454418
:101942000000000000CF03440590031C0462037CE6
:10195200036E030D0A006E616E00696E66006F769B
:0219620066001D
:00000001FF
