:100000000C9464000C948C000C948C000C948C0068
:100010000C948C000C948C000C948C000C940D129D
:100020000C9426040C948C000C948C000C948C0082
:100030000C948C000C948C000C948C000C948C0010
:100040000C9469120C948C000C9422100C94541093
:100050000C948C000C948C000C948C000C948C00F0
:100060000C948C000C948C0002000000080002012B
:10007000000003040700000000000000000102046B
:10008000081020408001020408102001020408101A
:100090002004040404040404040202020202020311
:1000A00003030303030000000023002600290000CF
:1000B000000000250028002B00000000002400277D
:1000C000002A0000AE0E841011241FBECFEFD8E02E
:1000D000DEBFCDBF13E0A0E0B1E0ECE0FBE202C088
:1000E00005900D92A434B107D9F725E0A4E4B3E05C
:1000F00001C01D92A230B207E1F710E0C4E6D0E0E3
:1001000004C02197FE010E945D14C236D107C9F7D1
:100110000E94B2100C9484150C940000CF92DF92D0
:10012000EF92FF920F931F93FC01718360835383BF
:1001300042833583248317830683F186E086D38642
:10014000C2861F910F91FF90EF90DF90CF9008959E
:1001500082E08093B0008093B10084E68093B30086
:100160008093B4001092B200089580934F0460937E
:100170005004662331F061E0811101C08DE00C94E0
:1001800078130895982F80915004882381F08091EE
:100190004F04992331F0882311F061E005C02D9AB6
:1001A0000895882319F060E00C94B4132D980895F5
:1001B000ACE4B3E011966C93119770E0FB01E35847
:1001C000FF4FE4911496EC931497FB01EF56FF4F09
:1001D000E491F0E0EE0FFF1FEB55FF4F85919491F6
:1001E00013969C938E93129708952CE433E0FC01B0
:1001F0003787268760E00E94D800EFE4F4E01082A1
:100200001182089580914C03833011F410924C03B5
:100210000895CF93DF93EC01F8940E94A80084E046
:1002200080937000CE010E940201789460E080917A
:100230004D03DF91CF910C9478130F931F93CF93BD
:10024000DF93EC01042F122F0E94D800602F812F22
:100250000E94B500CE01DF91CF911F910F910C94B8
:100260000901FC0180915303882339F01092530354
:100270001092540380E4818713C011868081808BA3
:1002800083819481A0E0B0E0858B968BA78BB08FA3
:1002900081819281A0E0B0E0818B928BA38BB48BA3
:1002A000108214821382128211821286138614869F
:1002B00015861086178208958AE0849FF001859F35
:1002C000F00D11249B0193E0220F331F9A95E1F763
:1002D000E217F30778F0869F9001879F300D112475
:1002E00083E0440F551F8A95E1F72417350720F066
:1002F00081E0089580E0089582E008958F929F92B2
:10030000AF92BF92DF92EF92FF920F931F93CF9322
:10031000DF93FC01E684F784F70100850630F0F1F5
:10032000EC01DD24D39475EC872E7DE9972E7CE1DA
:10033000A72E71E8B72E10E08D2D90E09C012E5F66
:100340003F4F20173107FCF4220F331FF701E20F54
:10035000F31F41855285880F991FF701E80FF91F98
:1003600061857285CE010E945C01E82FA501940190
:1003700063E971E080E091E00E94E4134B015C01CD
:100380008E26D394D9CF8A869B86AC86BD8680E2A2
:1003900090E098878F83188281E001C080E0DF9130
:1003A000CF911F910F91FF90EF90DF90BF90AF9092
:1003B0009F908F9008959C01FB01CB0163E470E056
:1003C0000E94F4132617370758F0CF0168E270E057
:1003D0000E94F4136F5F7F4F81E06217730708F488
:1003E00080E00895BF92CF92DF92EF92FF920F9339
:1003F0001F93CF93DF93DC011E96ED91FC911F9725
:1004000000914B038085081708F04DC0102F117024
:10041000B0904803B11035C0E00FF11DE00FF11DA1
:10042000E184F284113019F0CCEEDFEF02C0C4E1B8
:10043000D0E0C0904603D0904703CC0DDD1DBE0137
:10044000C7010E94DB01882319F081E090E015C00C
:10045000CC0DDD1DBE01C7010E94DB01882319F010
:1004600082E090E00AC0B6016C0F7D1FC7010E94B8
:10047000DB018823D1F083E090E090934A038093DE
:100480004903B394B09248038B2D90E02091490327
:1004900030914A038217930750F0109248030F5F80
:1004A00000934B0304C080E003C08FEF01C0812F95
:1004B000DF91CF911F910F91FF90EF90DF90CF9040
:1004C000BF900895FC019B012C5E3F4FC90163E47E
:1004D00070E00E94F413E617F70758F0C90168E2CC
:1004E00070E00E94F4136F5F7F4F81E06E177F070B
:1004F00008F480E00895FC019B0124513109C901F1
:1005000063E470E00E94F413E617F70758F0C9019E
:1005100068E270E00E94F4136F5F7F4F81E06E1716
:100520007F0708F480E008952F923F924F925F92E8
:100530006F927F928F929F92AF92BF92CF92DF92F3
:10054000EF92FF920F931F93CF93DF93CDB7DEB758
:1005500027970FB6F894DEBF0FBECDBF9B838A836B
:1005600069833D832C8328013701FC0106851785AB
:10057000C801840F911D840F911D09969F838E835E
:10058000C11008C0812C912C54018394C12CD12C12
:1005900076016DC0912CC12CD12C760199819916D0
:1005A00009F47EC0EE81FF81A080B1806C817D81E5
:1005B000C5010E946202882339F0CC0CDD1CEE1CC0
:1005C000FF1C6894C0F80BC0B201C5010E94620212
:1005D000882309F46CC0CC0CDD1CEE1CFF1C2E81A2
:1005E0003F812E5F3F4FF8014085C801840F911D68
:1005F000840F911D09962817390770F4B301EE8115
:10060000FF81828193810E947B02882309F44FC07D
:100610002E813F812C5F3F4F93943F832E83BECF2B
:10062000EE81FF81208031806C817D81C1010E943B
:100630006202882301F1C828D928EA28FB282E81E4
:100640003F812E5F3F4FF8014085C801840F911D07
:10065000840F911D099628173907A0F0880C991C62
:10066000AA1CBB1CF981F150F9833F832E83F981C9
:10067000F111D6CF15C0B201C1010E9462028111F1
:10068000DECF15C0B301EE81FF81828193810E948C
:100690007B02882361F02E813F812C5F3F4FDECFAC
:1006A000EA81FB81C286D386E486F58681E02796BF
:1006B0000FB6F894DEBF0FBECDBFDF91CF911F9173
:1006C0000F91FF90EF90DF90CF90BF90AF909F90F1
:1006D0008F907F906F905F904F903F902F900895F4
:1006E0002F923F924F925F926F927F928F929F9242
:1006F000AF92BF92CF92DF92EF92FF920F931F9330
:10070000CF93DF9300D000D01F92CDB7DEB79B838D
:100710008A836983190138018701842F90E0880F4B
:10072000991F0996EA81FB8146855785840F951F9D
:100730009D838C83C11008C0812C912C540183941B
:10074000C12CD12C760158C0912CC12CD12C760112
:10075000F9819F1609F45BC0B101EC81FD818081B4
:1007600091810E946202882309F458C0EC81FD81C6
:10077000A280B380B301C5010E947B02882339F0B7
:10078000CC0CDD1CEE1CFF1C6894C0F80BC0B8013B
:10079000C5010E947B02882309F440C0CC0CDD1CFB
:1007A000EE1CFF1C8C819D8104969D838C83939409
:1007B000CFCFB101EC81FD81808191810E946202E5
:1007C000882361F1EC81FD8142805380B301C20135
:1007D0000E947B028823A1F0C828D928EA28FB2898
:1007E0008C819D8104969D838C83880C991CAA1C06
:1007F000BB1C99819150998399819111DACF07C0DF
:10080000B801C2010E947B028111EACF07C0EA81D0
:10081000FB81C286D386E486F58681E00F900F9037
:100820000F900F900F90DF91CF911F910F91FF903C
:10083000EF90DF90CF90BF90AF909F908F907F9080
:100840006F905F904F903F902F9008951F920F925E
:100850000FB60F9211242F933F934F935F936F9393
:100860007F938F939F93AF93BF93EF93FF93E09109
:100870004E03F0914F039081809150039823209173
:100880005103309152032F3F8FEF380731F02F5F24
:100890003F4F309352032093510380914C038111B9
:1008A00019C0911161C02091510330915203253636
:1008B000310558F01092530330935603209355039B
:1008C00081E08093540380934C0310925203109262
:1008D00051034AC080914C038130A9F4992309F453
:1008E00043C0E09154038E0F80935403F0E0EE0F69
:1008F000FF1FE45BFC4F209151033091520332877C
:10090000218782E0E0CF80914C03823031F5911154
:1009100019C0E091540381E0E03720F08093530345
:1009200083E0D1CF8E0F80935403F0E0EE0FFF1FD2
:10093000E45BFC4F209151033091520332872187B1
:1009400081E0C1CF2091510330915203253631050A
:1009500058F083E080934C0307C080914C038330B0
:1009600019F4992309F4B1CF80915004882329F018
:1009700081E0911180E00E94C200FF91EF91BF9150
:10098000AF919F918F917F916F915F914F913F9127
:100990002F910F900FBE0F901F901895CF92EF924E
:1009A000FF920F931F93CF93DF93DC011E96ED917F
:1009B000FC911F9723853485205131092D30310555
:1009C00010F080E03CC020852432D9F7258536859B
:1009D0002551310920313105A0F7EC01C12C87EAFE
:1009E000E82E85E0F82E04ED11E026E132E043E048
:1009F00060E1CE010E947003882319F3EE85FF8524
:100A0000DF01A15BBF4F2D913C9128503109273068
:100A10003105B8F62A859B8592279F3F91F641853F
:100A200052854431554010F491E0998730E03C8381
:100A30002B8396E1988320E130E038872F83DF9184
:100A4000CF911F910F91FF90EF90CF900895CF928B
:100A5000EF92FF920F931F93CF93DF93DC011E96CB
:100A6000ED91FC911F972085203211F080E05DC050
:100A7000EC01CC24C3942CE0E22E23E0F22E0CE116
:100A800017E024E031E041E06FE00E94700388232A
:100A900069F3AE85BF85FD01E95BFF4F20813181A0
:100AA000245031092530310508F790E899870A85E7
:100AB0001B852C853D85E02FE370B901A80192E0EC
:100AC00076956795579547959A95D1F759831A82E8
:100AD0007A01FF24FC82EB8219960D90BC91A02D27
:100AE000A536B440B0F4998D9F5F998F00FF0BC07D
:100AF00022E829872D894095241711F036E8398797
:100B000030E03C832B83923028F09985916099875F
:100B100001C0198E2FE030E038872F83E150E2309A
:100B200010F492E101C093E09883DF91CF911F917F
:100B30000F91FF90EF90CF900895EF92FF920F9357
:100B40001F93CF93DF93EC01F62F8A017901E0E048
:100B500080E090E030E0DE01AE0FB11D5C915523E6
:100B600041F0350F5E9F800D911D11241C92FE13E4
:100B70001AC03323C1F0232F2695820F911D632FB6
:100B800070E00E94F413DE01A60FB11D3C93D80162
:100B90008C91882321F0D7018C91811109C06C932D
:100BA00080E090E030E0EF5FFE17A8F681E001C042
:100BB00080E0DF91CF911F910F91FF90EF9008950A
:100BC0006F927F928F929F92AF92BF92CF92DF925D
:100BD000EF92FF920F931F93CF93DF93CDB7DEB7C2
:100BE000E6970FB6F894DEBF0FBECDBFFC01A68519
:100BF000B78518962C911897243110F480E0EEC038
:100C00008E010F5F1F4F22E3F80111922A95E9F739
:100C100018964C91189750E04250510960E074E0EA
:100C2000272F30E024173507B4F4220F331FFD01BE
:100C3000E20FF31F21853285F901FF27E233F10529
:100C400040F4E00FF11FF080F394F082621708F493
:100C5000622F7E5FE5CF5C011EAA1DAA9E012B5C60
:100C60003F4FAE014A5C5F4FC8010E949D0588233B
:100C700029F282E3D8011D928A95E9F7F501A6854C
:100C8000B78518962C91189730E02250310960E012
:100C900043E0842F90E082179307B4F4880F991FE4
:100CA000FD01E80FF91F81859285FC01FF27E233E2
:100CB000F10540F4E00FF11F50815F5F508368172A
:100CC00008F4682F4E5FE5CF1CAA1BAA9E012D5C7D
:100CD0003F4FAE014C5C5F4FC8010E949D05D5019E
:100CE0001E96ED91FC911F972085269530E04901D5
:100CF000B2E08B1A9108F501908687822350310962
:100D000055E0369527955A95E1F7D22E7DA87110BA
:100D100034C08BA9882309F471CF612CEEA80CA9EB
:100D20002BA9F2E3EF9E7001112482E3089F80015A
:100D3000112492E3299F90011124472D4195440FDE
:100D40004D5F672D680D613208F060E2C12CC5016E
:100D50000E949402882309F451CF6394A0EE7A0E86
:100D6000D614E0F62CA930E0322F22279BA9292B9C
:100D7000F5013683258392E030C0712C612CEEA8FA
:100D80000DA92CA9F2E3EF9E7001112482E3089FC4
:100D90008001112492E3299F90011124472D419550
:100DA000440F4D5F672D680D613208F060E2C12C81
:100DB000C5010E947003882309F420CF6394A0EE3C
:100DC0007A0ED614E0F62EA930E0322F22279DA904
:100DD000292BF5013683258391E09083E6960FB6A3
:100DE000F894DEBF0FBECDBFDF91CF911F910F9161
:100DF000FF90EF90DF90CF90BF90AF909F908F903B
:100E00007F906F900895CF92EF92FF920F931F9370
:100E1000CF93DF93FC01A685B78518968C91189720
:100E20008432A1F0823211F080E057C019968D9182
:100E30009C911A978C3E9C4508F04EC01B968D9154
:100E40009C911C970897079758F046C01B968D9168
:100E50009C911C978D57910987359105A8F0E4CF97
:100E6000A55BBF4F8D919C9108970797A8F581E0EE
:100E700081878189928992838183858996899483E8
:100E8000838385E0808328C01D968D919C911E9759
:100E9000CE978C9748F6EF01C12C8EE0E82E82E0C9
:100EA000F82E0AE216E02EE032E043E060E1CF01E6
:100EB0000E947003882309F4B7CF2A854B8550E040
:100EC0005C834B8330E03A83298320E130E038872C
:100ED0002F8395E0988301C081E0DF91CF911F912E
:100EE0000F91FF90EF90CF9008959F92AF92BF9295
:100EF000CF92DF92EF92FF920F931F93CF93DF93E6
:100F0000DC011E96ED91FC911F972085243611F08F
:100F100080E09FC023853485235331092532310574
:100F2000B8F7258536852A5131092331310580F7F7
:100F3000EC01C12C80EBE82EFF24F39400E115E0D6
:100F400020EB31E043E060E1CD010E947003882393
:100F5000F9F2DA84AD2CBB84B2E0AB16B0E2BB068A
:100F6000B9F02AEAA2162AE5B206A9F084E5A81685
:100F700082E3B80699F093E0A91691E0B90689F0EA
:100F8000A3E2AA16ABECBA0679F0EAE09E2E0EC0F8
:100F900079E0972E0BC06DE0962E08C05CE0952E90
:100FA00005C04BE0942E02C03EE0932EC12C20EBF6
:100FB000E22EFF24F39400E115E020EB31E043E260
:100FC00060E2CE010E947003882309F442C0DB2452
:100FD0004A855B856C857D859A0194E036952795D9
:100FE0009A95E1F73A832983262F30E03C832B83BF
:100FF000942F962795272D2D22952F702D252F7014
:1010000030E0E42FEF70F0E02E173F0711F024E0FE
:101010002987BAE09B1649F02985206129872D810F
:101020003E81A22AB32ABE82AD82971719F0998514
:1010300094609987EE85FF852185328528323A4074
:1010400018F4998591609987988220E330E0388779
:101050002F83DF91CF911F910F91FF90EF90DF9041
:10106000CF90BF90AF909F900895CF92EF92FF9254
:101070000F931F93CF93DF93DC011E96ED91FC91AC
:101080001F9723853485225031092430310510F013
:1010900080E059C020852432D9F7258536852F5028
:1010A00031092C303105A0F7EC01CC24C39447E082
:1010B000E42EFF24F39409E212E02EE930E043E04D
:1010C00060E10E947003882319F3EE85FF85DF013C
:1010D000A15BBF4F2D913C91225031092430310545
:1010E000B8F690E899879A852B85492F522F622F61
:1010F00062956F702F7034E0569547953A95E1F7F9
:101100004F70392F3F709FE0962792279427391709
:1011100011F094E899870184F285E02DE83FF141D0
:1011200018F499859260998769831A8290E1299FC2
:1011300090011124242B3C832B8397E1988320E199
:1011400030E038872F83DF91CF911F910F91FF906F
:10115000EF90CF900895CF92DF92EF92FF920F938E
:101160001F93CF93DF93EC01EE85FF8520852C3311
:1011700021F0243011F080E08CC083859485AC018F
:10118000465851094D35510528F468E670E186E06E
:10119000D82E07C08D97809770F76CE175E207E055
:1011A000D02E85859685243029F44D97469708F4EE
:1011B0005DC0E1CF0E947B028823E9F2CC24C39476
:1011C00016E2E12E12E0F12E0CE216E024EF31E0FF
:1011D00043E06CE1CE010E947003882361F2EE854A
:1011E000FF85E158FF4F2081318127503109283098
:1011F000310508F690E899874A855B856C857D8581
:101200008A019B0194E036952795179507959A9545
:10121000D1F7F8011C830B838A019B01A4E1369569
:10122000279517950795AA95D1F71A83098324E086
:1012300030E090E0AE2FAF709A0FB4E0F695E795EE
:10124000BA95E1F721503109A9F749274F70552781
:1012500066277727452B462B472B11F094E8998773
:10126000D8822CE130E038872F8313C0878590899E
:101270000797089708F07FCF81E8898789899A893D
:101280009A8389838D899E899C838B8388898883AF
:1012900081E0DF91CF911F910F91FF90EF90DF9050
:1012A000CF9008955F926F927F928F929F92AF92AC
:1012B000BF92CF92DF92EF92FF920F931F93CF9343
:1012C000DF93CDB7DEB728970FB6F894DEBF0FBE19
:1012D000CDBF7C01DC011E96ED91FC911F978085AE
:1012E0008037D9F46F01BCEDCB0ED11C20E030E08B
:1012F00040E0912C812C712C612C512CA384B4845E
:1013000005851685C801B5010E94F4130A0D1B1D41
:10131000015111090E30110510F080E03AC0623021
:10132000710548F0592D682D772D862D952D01E0FA
:101330000E94441409C0592D682D772D862D952DB6
:1013400001E00E9444142160952E862E772E682E8F
:10135000592E3496EC15FD0589F629833A834B8383
:101360009C828D827E8288E1F701808387E390E012
:101370009087878380E1818789819A81968385839D
:101380008B819C81AD81BE8182879387A487B5873D
:1013900081E028960FB6F894DEBF0FBECDBFDF9177
:1013A000CF911F910F91FF90EF90DF90CF90BF9062
:1013B000AF909F908F907F906F905F900895CF92A5
:1013C000EF92FF920F931F93CF93DF93EC01EE8583
:1013D000FF852085822F8F7B843011F080E06FC0E5
:1013E00083859485865891098C359105B8F7858554
:1013F0009685243021F48197489730F0EFCF8254BE
:1014000091098F97A0F0EACF878590890897089770
:1014100028F781E0898789899A899A8389838D89C8
:101420009E899C838B838889888381E048C0C12CF6
:1014300080E3E82E82E0F82E00E916E020E332E0B7
:1014400043E060E2CE010E947003882339F2EE850A
:10145000FF85E157FF4F2081318128503109283025
:10146000310508F0BBCF4A859B853C852D85632FD0
:1014700070E07C836B83642F792F6E3E57E875078D
:1014800031F495E1988330E03A83298314C0909534
:10149000491304C050E05A83498302C07A836983A8
:1014A000922F9095391303C098E0988304C094E17B
:1014B00098833B832C8320E230E038872F83DF91B1
:1014C000CF911F910F91FF90EF90CF900895CF9201
:1014D000DF92EF92FF920F931F93CF93DF93EC0174
:1014E00081E080934B0389E793E0909347038093D7
:1014F000460310924803CE010E94F201813009F0A8
:1015000059C0C12CD12C760110E0EE85FF85908565
:1015100080914B038917E8F4CE010E94F201082F55
:10152000CE010E94F20101110AC0813009F042C0CF
:10153000CC0CDD1CEE1CFF1C6894C0F808C0013008
:10154000C9F5811137C0CC0CDD1CEE1CFF1C1F5FE0
:10155000DCCF812F90E098878F836D2DCA86DB8644
:10156000EC86FD868C2D8F7390E09C838B83960197
:10157000A90176E0569547957A95E1F74F71552781
:101580005A83498334FD04C0805C9F4F9C838B83C6
:1015900080E8898763FF02C088E889878185928512
:1015A000833E984018F48985816089878FE088831D
:1015B00081E001C080E0DF91CF911F910F91FF90FA
:1015C000EF90DF90CF900895BF92CF92DF92EF928D
:1015D000FF920F931F93CF93DF93DC011E96ED9143
:1015E000FC911F9723853485285231092D3131050F
:1015F00098F5258536852C5031092B30310560F55D
:10160000EC0183E080934B038CEB91E090934703D4
:101610008093460310924803CD010E94F20181306D
:10162000D9F4CE010E94F201811116C0C12CD12C37
:10163000760110E0EE85FF85908580914B03891738
:1016400070F5CE010E94F201B82E133039F4CE01AC
:101650000E94F201B81611F080E059C0CE010E943C
:10166000F201082F133029F4CE010E94F201081371
:10167000F3CFB1E0BB1209C00111EECFCC0CDD1CE1
:10168000EE1CFF1C6894C0F808C0B110E5CF013013
:1016900019F7CC0CDD1CEE1CFF1C1F5FCBCF812F7C
:1016A00090E098878F832C2D5E2D4F2DCA86DB8688
:1016B000EC86FD86143278F480E889878C2D90E0E2
:1016C0009C838B838D2D90E09A838983E0FE14C0E8
:1016D00088E8898711C080E989878D2DD7FE02C0EF
:1016E00098E9998730E03C832B838F7790E09A8349
:1016F0008983CA019D834E838185928583379A4071
:1017000018F489858160898780E1888381E0DF9191
:10171000CF911F910F91FF90EF90DF90CF90BF90EE
:101720000895CF92EF92FF920F931F93CF93DF9381
:10173000EC01EE85FF858085982F9F7D943411F014
:101740008630D1F423853485225431092F32310576
:10175000A8F012C0C12C99E2E92E92E0F92E0BE715
:1017600016E029E232E043E08436E1F560E1CE01A3
:101770000E947003811116C080E051C02585368516
:10178000215431092F323105B8F7863019F781E03D
:10179000898789899A899A8389838D899E899C837F
:1017A0008B833AC08A859B859A83898329E232E0BC
:1017B00043E060E2CE010E9470038823E9F29A853B
:1017C0008B852C853D852095321729F090959817AB
:1017D00011F094E0998790E0932B9C838B8380E3B6
:1017E00090E018C060E2CE010E9470038823B9F037
:1017F0008C853D852A859B8529839A83932F909597
:10180000891304C090E09C838B8302C08B833C834C
:1018100080E290E098878F8381E1888381E0DF9187
:10182000CF911F910F91FF90EF90CF900895CF929D
:10183000EF92FF920F931F93CF93DF93DC011E96DD
:10184000ED91FC911F9723853485245231092A316B
:10185000310510F080E04EC020852A3121F02A3277
:1018600011F02032B9F74585568548505109483066
:10187000510580F730E0B9016150710977FDB90178
:10188000EC0175956795C12C98E5E92E92E0F92E4B
:1018900008E512E020EB34E043E0CE010E94940220
:1018A0008823C1F24A855B856C857D85242F2F773F
:1018B000E7E07695679557954795EA95D1F7EE85D8
:1018C000FF85A185B285A438B34010F491E09987D3
:1018D00030E03C832B835A834983408550E09A0152
:1018E0002150310937FD9A013595279538872F8387
:1018F00093E19883DF91CF911F910F91FF90EF902B
:10190000CF900895CF92EF92FF920F931F93CF93B2
:10191000DF93DC011E96ED91FC911F972085243406
:1019200011F080E033C0238534852B5031092A30F3
:101930003105B8F7258536852A5231092E31310512
:1019400080F7EC01CC24C3948EEEE82E82E0F82ED2
:1019500006E618E02EEE32E043E060E2CE010E949F
:1019600070038823F1F2EE85FF85E157FF4F208158
:1019700031812B5031092A30310598F690E899874A
:1019800020E230E038872F8399E19883DF91CF916F
:101990001F910F91FF90EF90CF900895CF93DF9319
:1019A00020914C03233009F053C0EC010E94310117
:1019B000898586FF02C0188249C0CE010E94DF09D6
:1019C000811144C0CE010E94750781113FC0CE0134
:1019D0000E94270581113AC0CE010E94170C811187
:1019E00035C0CE010E94670A811130C0CE010E942D
:1019F000E40A81112BC0CE010E94AB08811126C0E0
:101A0000CE010E940307811121C0CE010E94910BDB
:101A100081111CC0CE010E94820C811117C0CE0121
:101A20000E943508811112C0CE010E94CE0481119E
:101A30000DC0CE010E945209811108C0CE010E9442
:101A4000E005811103C0CE010E947E0181E001C04A
:101A500080E0DF91CF910895E0914403F091450338
:101A600061E080850E94B413E0914403F091450346
:101A700061E086810E94B413E0914403F091450334
:101A800060E082850E94B413E0914403F091450325
:101A900060E084810E94B41368EE73E080E090E01F
:101AA0000C94D812E0914403F091450361E08285E3
:101AB0000E94B413E0914403F091450361E08481F6
:101AC0000E94B413E0914403F091450360E08085E7
:101AD0000E94B413E0914403F091450360E08681D5
:101AE0000E94B41368EE73E080E090E00C94D8128A
:101AF000E0914403F091450360E080850E94B413B7
:101B0000E0914403F091450360E084810E94B413A6
:101B1000E0914403F091450361E082850E94B41393
:101B2000E0914403F091450361E086810C94B41385
:101B3000E0914403F091450361E080850E94B41375
:101B4000E0914403F091450361E084810E94B41365
:101B5000E0914403F091450360E082850E94B41354
:101B6000E0914403F091450360E086810C94B41346
:101B7000E0914403F091450360E080850E94B41336
:101B8000E0914403F091450360E084810E94B41326
:101B9000E0914403F091450360E082850E94B41314
:101BA000E0914403F091450360E086810C94B41306
:101BB000CF93DF93C6E0D1E061E088810E94B41347
:101BC00068EC70E080E090E00E94D81261E08881CB
:101BD0000E947813E0914403F091450361E0808115
:101BE0000E947813E0914403F091450361E0828103
:101BF0000E947813E0914403F091450361E08081F5
:101C00000E94B413E0914403F091450361E08281A6
:101C10000E94B413E0914403F091450361E0848194
:101C20000E947813E0914403F091450361E08681BE
:101C30000E947813E0914403F091450361E08085B0
:101C40000E947813E0914403F091450361E082859E
:101C50000E947813E0914403F091450360E0848191
:101C60000E94B413E0914403F091450360E0868143
:101C70000E94B413E0914403F091450360E0808535
:101C80000E94B413E0914403F091450360E0828523
:101C90000E94B41326E040E052EC61E070E081E580
:101CA00094E00E94BD0F20E041E067E085E394E00E
:101CB0000E941D016FEF72E081E594E00E94021125
:101CC0004AE050E067E070E081E594E0DF91CF9179
:101CD0000C94C611CF93DF9385E394E00E94CE0C61
:101CE0008823C9F1C0913804D0913904AE0160E075
:101CF00070E02AE030E081E594E00E946511C53192
:101D0000D105A9F040F4C730D105A1F02997E9F435
:101D10000E94B80D1AC0C434D10579F0C734D1057A
:101D200079F0C034D10589F40E94980D0EC00E944C
:101D30002C0D0BC00E94520D08C00E94780D05C0EA
:101D400060E0809106010E94B41385E394E0DF9186
:101D5000CF910C940201DF91CF910895CF92DF9241
:101D6000EF92FF920F931F93CF93DF9385E394E05D
:101D70000E94F500EFE4F4E0108211828CE090E024
:101D80000E94C110EC0185E0C82ED12C94E0E92E10
:101D9000F12C03E010E022E030E048E050E066E0A3
:101DA00070E0CE010E948E00D0934503C09344039F
:101DB000DF91CF911F910F91FF90EF90DF90CF9027
:101DC0000895FC01918D228D892F90E0805C9F4FBA
:101DD000821B91098F7399270895FC01918D828D43
:101DE000981731F0828DE80FF11D858D90E00895F0
:101DF0008FEF9FEF0895FC01918D828D981761F010
:101E0000828DDF01A80FB11D5D968C91928D9F5F31
:101E10009F73928F90E008958FEF9FEF0895FC01DC
:101E2000538D448D252F30E0842F90E0821B930B3F
:101E3000541710F0CF960895019708958AE790E11E
:101E4000892B49F080E090E0892B29F00E947A10DC
:101E500081110C9400000895FC01848DDF01A80F0E
:101E6000B11DA35ABF4F2C91848D90E001968F73C2
:101E70009927848FA689B7892C93A089B1898C91E1
:101E8000837080648C93938D848D981306C0028830
:101E9000F389E02D80818F7D80830895EF92FF92FA
:101EA0000F931F93CF93DF93EC0181E0888F9B8D7D
:101EB0008C8D981305C0E889F989808185FD26C03D
:101EC000F62E0B8D10E00F5F1F4F0F731127E02EC2
:101ED0008C8DE8120CC00FB607FCFACFE889F9899F
:101EE000808185FFF5CFCE010E942C0FF1CF8B8D25
:101EF000FE01E80FF11DE35AFF4FF0829FB7F894FF
:101F00000B8FEA89FB89808180620AC09FB7F894B1
:101F1000EE89FF896083E889F98980818370806414
:101F200080839FBF81E090E0DF91CF911F910F915F
:101F3000FF90EF900895CF93DF93EC01888D882375
:101F4000C9F0EA89FB89808185FD05C0A889B98926
:101F50008C9186FD0FC00FB607FCF5CF808185FF01
:101F6000F2CFA889B9898C9185FFEDCFCE010E946F
:101F70002C0FE7CFDF91CF910895CF92DF92EF92B0
:101F8000FF921F93CF93DF93EC016A017B01122F25
:101F9000E889F98982E080834115514E6105710518
:101FA000B1F060E079E08DE390E0A70196010E9436
:101FB0000814DA01C9010197A109B109B695A795DD
:101FC000979587959C01211580E13807A8F0E8894D
:101FD000F989108260E874E88EE190E0A70196012B
:101FE0000E940814DA01C9010197A109B109B69547
:101FF000A795979587959C01EC85FD853083EE85A7
:10200000FF852083188EEC89FD891083EA89FB897E
:10201000808180618083EA89FB89808188608083F8
:10202000EA89FB89808180688083EA89FB898081D5
:102030008F7D8083DF91CF911F91FF90EF90DF9094
:10204000CF9008951F920F920FB60F9211242F93E5
:102050008F939F93EF93FF93E0916104F09162045B
:102060008081E0916704F091680482FD12C0908144
:1020700080916A048F5F8F7320916B04821751F0F7
:10208000E0916A04F0E0EF5AFB4F958F80936A0469
:1020900001C08081FF91EF919F918F912F910F90BF
:1020A0000FBE0F901F9018951F920F920FB60F92B0
:1020B00011242F933F934F935F936F937F938F934D
:1020C0009F93AF93BF93EF93FF9381E594E00E94BA
:1020D0002C0FFF91EF91BF91AF919F918F917F91C5
:1020E0006F915F914F913F912F910F900FBE0F9085
:1020F0001F90189581E594E00E94E10E21E0892B64
:1021000009F420E0822F0895E1E5F4E013821282C1
:1021100088EE93E0A0E0B0E084839583A683B78344
:1021200087E293E09183808385EC90E095878487B4
:1021300084EC90E09787868780EC90E0918B808B91
:1021400081EC90E0938B828B82EC90E0958B848B7A
:1021500086EC90E0978B868B118E128E138E148EE8
:10216000089508950E9414130E94B1100E94D80D82
:10217000CEE1DFE00E946A0E2097E1F30E941E0F7D
:10218000F9CF0C946314CF92DF92EF92FF920F93EA
:102190001F93CF93DF936C017A018B01C0E0D0E0F5
:1021A000CE15DF0581F0D8016D918D01D601ED913D
:1021B000FC910190F081E02DC6010995892B11F069
:1021C0002196EECF7E01C701DF91CF911F910F9134
:1021D000FF90EF90DF90CF9008956115710579F031
:1021E000FB0101900020E9F73197AF01461B570B27
:1021F000DC01ED91FC910280F381E02D099480E0F7
:1022000090E008950C94ED10DC01ED91FC910190AB
:10221000F081E02D099465E373E00C94ED108F924A
:102220009F92AF92BF92EF92FF920F931F93CF9323
:10223000DF93CDB7DEB7A1970FB6F894DEBF0FBE20
:10224000CDBF7C01FA01CB0119A2223008F42AE0AB
:102250008E010F5D1F4F822E912CA12CB12CBF013E
:10226000A50194010E940814F901CA010150110945
:102270006A3010F4605D01C0695CD8016C93232B57
:10228000242B252B61F7B801C7010E94ED10A19600
:102290000FB6F894DEBF0FBECDBFDF91CF911F9177
:1022A0000F91FF90EF90BF90AF909F908F90089507
:1022B0002115310541F4DC01ED91FC910190F08193
:1022C000E02D642F09940C940F110F931F93CF935B
:1022D000DF93EC010E9458118C01CE010E940B117A
:1022E000800F911FDF91CF911F910F910895CF9291
:1022F000DF92EF92FF920F931F93CF93DF932115FD
:10230000310581F4DC01ED91FC910190F081E02D2B
:10231000642FDF91CF911F910F91FF90EF90DF908D
:10232000CF9009942A30310501F577FF1DC06A016D
:102330007B01EC016DE20E9404118C0144275527BA
:10234000BA014C195D096E097F092AE0CE010E948D
:102350000F11800F911FDF91CF911F910F91FF906F
:10236000EF90DF90CF9008952AE0DF91CF911F91F9
:102370000F91FF90EF90DF90CF900C940F119A0186
:10238000AB01770F660B770B0C9477110F931F93AC
:10239000CF93DF93EC010E94BF118C01CE010E940C
:1023A0000B11800F911FDF91CF911F910F91089515
:1023B000813039F018F0823051F0089510926E009B
:1023C000089580916F008D7F80936F0008958091B4
:1023D00070008D7F8093700081E08093B0008091C9
:1023E000B100887F84608093B1001092B30008959B
:1023F000CF93C82F80910801C81307C0E8E6F0E02A
:1024000084919FEF9093080101C08FEF0E94D81133
:1024100060E08C2FCF910C94B4131F920F920FB6E3
:102420000F9211242F933F934F935F936F937F935A
:102430008F939F93AF93BF93EF93FF938091F1049A
:102440009091F204A091F304B091F404892B8A2BAB
:102450008B2B51F19091EE04E091EF04F091F00498
:102460008081892780838091F1049091F204A0916A
:10247000F304B091F404181619061A061B06C4F4E6
:102480008091F1049091F204A091F304B091F404CE
:102490000197A109B1098093F1049093F204A093EC
:1024A000F304B093F40404C0809108010E94F81171
:1024B000FF91EF91BF91AF919F918F917F916F911C
:1024C0005F914F913F912F910F900FBE0F901F90F2
:1024D00018951F920F920FB60F9211242F933F93CE
:1024E0008F939F93AF93BF938091F6049091F704DD
:1024F000A091F804B091F9043091F50423E0230F82
:102500002D3720F40196A11DB11D05C026E8230F2B
:102510000296A11DB11D2093F5048093F6049093BB
:10252000F704A093F804B093F9048091FA04909111
:10253000FB04A091FC04B091FD040196A11DB11D06
:102540008093FA049093FB04A093FC04B093FD04E1
:10255000BF91AF919F918F913F912F910F900FBE9F
:102560000F901F9018953FB7F8948091FA049091BE
:10257000FB04A091FC04B091FD0426B5A89B05C006
:102580002F3F19F00196A11DB11D3FBFBA2FA92FF2
:10259000982F8827820F911DA11DB11DBC01CD016F
:1025A00042E0660F771F881F991F4A95D1F708955B
:1025B0008F929F92AF92BF92CF92DF92EF92FF9253
:1025C0006B017C010E94B3124B015C01C114D10468
:1025D000E104F10401F10E94E3130E94B312DC0153
:1025E000CB0188199909AA09BB09883E9340A10526
:1025F000B10560F321E0C21AD108E108F10888EEC4
:10260000880E83E0981EA11CB11CC114D104E10402
:10261000F10419F7DBCFFF90EF90DF90CF90BF90E0
:10262000AF909F908F900895789484B5826084BD18
:1026300084B5816084BD85B5826085BD85B58160C6
:1026400085BDEEE6F0E0808181608083E1E8F0E026
:102650001082808182608083808181608083E0E855
:10266000F0E0808181608083E1EBF0E08081846034
:102670008083E0EBF0E0808181608083EAE7F0E036
:10268000808184608083808182608083808181609A
:1026900080838081806880831092C1000895833098
:1026A00081F028F4813099F08230A1F008958730CC
:1026B000A9F08830B9F08430D1F4809180008F7D0A
:1026C00003C0809180008F7780938000089584B547
:1026D0008F7702C084B58F7D84BD08958091B0004E
:1026E0008F7703C08091B0008F7D8093B0000895F4
:1026F000CF93DF9390E0FC01E358FF4F2491FC015E
:10270000EF56FF4F8491882361F190E0880F991F65
:10271000FC01E754FF4FC591D491FC01E155FF4FF7
:10272000A591B491611109C09FB7F8948881209553
:1027300082238883EC912E230BC0623061F49FB713
:10274000F8948881322F309583238883EC912E2B47
:102750002C939FBF06C08FB7F894E8812E2B288357
:102760008FBFDF91CF9108951F93CF93DF93282FD1
:1027700030E0F901E759FF4F8491F901E358FF4F29
:10278000D491F901EF56FF4FC491CC23C1F0162F1D
:1027900081110E944F13EC2FF0E0EE0FFF1FE15567
:1027A000FF4FA591B4919FB7F894111104C08C917B
:1027B000D095D82302C0EC91DE2BDC939FBFDF9134
:1027C000CF911F9108950895DB018F939F930E94ED
:1027D0003914BF91AF91A29F800D911DA39F900DC1
:1027E000B29F900D11240895AA1BBB1B51E107C095
:1027F000AA1FBB1FA617B70710F0A61BB70B881F91
:10280000991F5A95A9F780959095BC01CD0108951F
:10281000A1E21A2EAA1BBB1BFD010DC0AA1FBB1FE4
:10282000EE1FFF1FA217B307E407F50720F0A21B56
:10283000B30BE40BF50B661F771F881F991F1A94C3
:1028400069F760957095809590959B01AC01BD01ED
:10285000CF010895A29FB001B39FC001A39F700D47
:10286000811D1124911DB29F700D811D1124911D98
:1028700008950E942A14A59F900DB49F900DA49FC7
:10288000800D911D112408950F93083090F0982F1A
:10289000872F762F652F542F432F322F2227085052
:1028A000F4CF220F331F441F551F661F771F881F49
:1028B000991F0A95B2F70F910895EE0FFF1F05902B
:1028C000F491E02D09940F931F93CF93DF938230FF
:1028D000910510F482E090E0E0910005F09101058F
:1028E00020E030E0A0E0B0E0309719F14081518164
:1028F0000281138148175907C8F08417950769F4B6
:10290000109731F012960C93129713961C9327C0D0
:10291000009300051093010522C02115310519F01F
:102920004217530718F49A01BD01EF01DF01F801C6
:10293000DBCF21153105F9F0281B390B2430310587
:1029400080F48A819B816115710521F0FB019383DD
:10295000828304C09093010580930005FE013296A6
:1029600044C0FE01E20FF31F81939193225031097D
:10297000398328833AC02091FE043091FF04232B31
:1029800041F420910201309103013093FF04209320
:10299000FE0420910001309101012115310541F41F
:1029A0002DB73EB74091040150910501241B350B12
:1029B000E091FE04F091FF04E217F307A0F42E1B50
:1029C0003F0B2817390778F0AC014E5F5F4F241793
:1029D000350748F04E0F5F1F5093FF044093FE04ED
:1029E0008193919302C0E0E0F0E0CF01DF91CF91BD
:1029F0001F910F910895CF93DF93009709F481C041
:102A0000FC01329713821282A0910005B09101055A
:102A1000109781F420813181820F931F2091FE0451
:102A20003091FF042817390751F5F093FF04E09324
:102A3000FE0467C0ED0120E030E0CE17DF0740F470
:102A40004A815B819E0141155105F1F0EA01F5CF04
:102A5000D383C28340815181840F951FC817D90742
:102A600059F488819981840F951F02969183808300
:102A70008A819B81938382832115310529F4F09308
:102A80000105E09300053DC0E901FB83EA8349911C
:102A90005991C40FD51FEC17FD0761F48081918116
:102AA000840F951F0296E90199838883828193811F
:102AB0009B838A83E0E0F0E012968D919C911397BE
:102AC000009719F0FD01DC01F7CF8D919C911197D2
:102AD0009D012E5F3F4F820F931F2091FE04309186
:102AE000FF042817390769F4309729F4109201057B
:102AF0001092000502C013821282B093FF04A093CB
:0C2B0000FE04DF91CF910895F894FFCF00
:102B0C000000020520000C00FF5468652066756EFD
:102B1C006374696F6E2073656E6444656E6F6E28A6
:102B2C00646174612C206E6269747329206973204E
:102B3C006465707265636174656420616E64206D98
:102B4C006179206E6F7420776F726B2061732065D2
:102B5C007870656374656421205573652073656EA8
:102B6C006444656E6F6E52617728646174612C20C9
:102B7C004E756D6265724F6652657065617473292E
:102B8C00206F72206265747465722073656E644484
:102B9C00656E6F6E28416464726573732C20436F8D
:102BAC006D6D616E642C204E756D6265724F665250
:102BBC00657065617473292E005468652066756EA6
:102BCC006374696F6E2073656E644C47286461741E
:102BDC00612C206E6269747329206973206465709E
:102BEC007265636174656420616E64206D61792027
:102BFC006E6F7420776F726B2061732065787065CF
:102C0C006374656421205573652073656E644C474D
:102C1C0052617728646174612C204E756D62657207
:102C2C004F665265706561747329206F72206265FE
:102C3C00747465722073656E644C472841646472C9
:102C4C006573732C20436F6D6D616E642C204E7513
:102C5C006D6265724F6652657065617473292E00E2
:102C6C005468652066756E6374696F6E2064656365
:102C7C006F64652826726573756C747329292069D5
:102C8C0073206465707265636174656420616E6441
:102C9C00206D6179206E6F7420776F726B20617379
:102CAC0020657870656374656421204A757374209F
:102CBC00757365206465636F646528292077697472
:102CCC00686F7574206120706172616D65746572D6
:102CDC0020616E6420497252656365697665722E57
:102CEC006465636F6465644952446174612E3C662B
:102CFC0069656C646E616D653E202E00223B00524E
:102D0C006561647920746F207265636569766520EE
:102D1C004952207369676E616C732061742070690D
:102D2C006E2000000000004E0FC3100F0F9B0FE130
:102D3C000EFB0EED0E0D0A006E616E00696E6600E4
:042D4C006F76660038
:00000001FF
